:103800000C94341C0C944F1C0C944F1C0C944F1CA7
:103810000C944F1C0C944F1C0C944F1C0C944F1C7C
:103820000C944F1C0C944F1C0C944F1C0C944F1C6C
:103830000C944F1C0C944F1C0C944F1C0C944F1C5C
:103840000C944F1C0C944F1C0C944F1C0C944F1C4C
:103850000C944F1C0C944F1C0C944F1C0C944F1C3C
:103860000C944F1C0C944F1C11241FBECFEFD4E0BE
:10387000DEBFCDBF11E0A0E0B1E0EEEAFDE302C0A3
:1038800005900D92A030B107D9F711E0A0E0B1E0AA
:1038900001C01D92A738B107E1F70C947B1D0C9471
:1038A000001C81E40E94941E86E50E94941E82E51D
:1038B0000E94941E82E40E94941E8FE40E94941E33
:1038C0008FE40E94941E84E50E94941E0895BF9286
:1038D000CF92DF92EF92FF920F931F93CF93DF93DC
:1038E0008C01B62E20E030E0E901CE5FDE4F790199
:1038F0000894E11CF11C2017310718F40E94B41E33
:1039000001C08FEF888397012038310568F320E0EC
:1039100030E0C0908201D0908301E0908401F0906B
:1039200085018FB3992796958795AC0141705070AA
:1039300080FDF7CF80918601853709F07FC086E44E
:10394000B81609F039C041E0C2E0D1E08991282FD2
:10395000332789919927982F8827282B392B8091F5
:103960008201909183010901FC0140935700E89581
:1039700011248091820190918301A0918401B091E2
:1039800085010296A11DB11D809382019093830150
:10399000A0938401B093850102501040B9F685E0F0
:1039A000F60180935700E89507B600FCFDCF81E152
:1039B00080935700E8953FC085E4B816E1F5809103
:1039C000820190918301A0918401B0918501B69507
:1039D000A795979587958093820190938301A093F3
:1039E0008401B0938501F901EF5FFE4F8091820160
:1039F00081BD8091820190918301A0918401B09159
:103A00008501292F3A2F4B2F552722BD0196A11D45
:103A1000B11D8093820190938301A0938401B093A0
:103A200085013196808180BDFA9AF99AF999FECF85
:103A300001501040D9F68DE090E001C0CA01DF913D
:103A4000CF911F910F91FF90EF90DF90CF90BF909B
:103A500008950F931F93CF93DF93EC01F999FECF55
:103A6000653411F58091820181BD80918201909130
:103A70008301A0918401B0918501292F3A2F4B2F0A
:103A8000552722BD0196A11DB11D809382019093FF
:103A90008301A0938401B0938501F89A80B50E94B8
:103AA000941E2197F9F622C0E0918201F0918301E2
:103AB00005911491802F0E94941E812F99270E94B6
:103AC000941E8091820190918301A0918401B09114
:103AD00085010296A11DB11D8093820190938301FF
:103AE000A0938401B09385012297F1F6DF91CF91E5
:103AF0001F910F910895CFEFD4E0DEBFCDBFF894B2
:103B000081E085BF82E085BF60E089E190E00E94AE
:103B1000861E3898409A0E94B41E682F813611F490
:103B200089E5F1C0813439F50E94B41E9927AA278E
:103B3000BB278093820190938301A0938401B0936B
:103B40008501EE24F82E092F1A2F0E94B41E992702
:103B5000AA27BB27E82AF92A0A2B1B2BEE0CFF1CED
:103B6000001F111FE0928201F092830100938401F3
:103B70001093850168C0823641F489E50E94941E45
:103B800080E00E94941E80E8BEC0823489F40E94C6
:103B9000B41E9927182F00270E94B41E9927082BBE
:103BA000192B0E94B41E682FC8010E94671CABC06D
:103BB000873689F40E94B41E9927182F00270E9487
:103BC000B41E9927082B192B0E94B41E682FC80118
:103BD0000E94291DA0CF853609F037C0809186014B
:103BE000853769F510928201109283011092840149
:103BF0001092850123E08091820190918301FC0164
:103C000020935700E89507B600FCFDCF8091820114
:103C100090918301A0918401B091850180589F4FBC
:103C2000AF4FBF4F8093820190938301A093840193
:103C3000B093850180509843A040B040E0F281E10C
:103C400080935700E8958DE05EC0853461F488E18B
:103C500090E028E00FB6F894A895809360000FBE1E
:103C600020936000F0CF803571F38C3461F380379E
:103C700011F483E548C0863421F469E080E090E0E7
:103C800005C0823731F469E081E090E00E94D01EE7
:103C90003AC08E3421F469E083E090E0F7CF8135BB
:103CA00021F469E082E090E0F1CF843729F485E7E0
:103CB0000E94941E80E027C08857823018F40E942A
:103CC000B41EC1CF643529F40E94B41E80938601CE
:103CD000BACF633519F40E94511C1DCF663529F403
:103CE00080E30E94941E87E30EC0633741F486E0B0
:103CF0000E94941E84E90E94941E8EE104C06B31E0
:103D000009F409CF8FE30E94941E05CF9C01832FF5
:103D100099278093C5002093C40088E18093C10057
:103D200086E08093C200089520E030E08093C600D2
:103D30000FB607FE0FC08091C00086FD0FC02F5F39
:103D40003F4F8091C00086FD09C087E220313807CF
:103D5000B4F304C08091C00086FFFCCF8091C00006
:103D600080648093C000089520E030E00FB607FE25
:103D70000FC08091C00087FD0FC02F5F3F4F809123
:103D8000C00087FD09C087E220313807B4F304C0C2
:103D90008091C0008823E4F78091C6009927089598
:0E3DA000FC0160935700C895802D9927089567
:0400000300003800C1
:00000001FF
