:10000000830100308A004828F60003088301C900F4
:100010000408CA000A08CB008A010B1C102811280A
:1000200013280B108B158B1C1628172818288B10DB
:100030000B1D1B281C2822280A168A1199270A1230
:100040008A110B11831203138C1C272828282E28B1
:100050000A168A11C6250A128A118C1083120313FC
:100060008C1E332834283D2883168C120A168A11D8
:1000700034260A128A1183168C16031383124A0837
:1000800084004B088A0049088300F60E760E0900AA
:100090002030840021306A202130840047306A20DB
:1000A00083010730CD00FE30CC004730840049305A
:1000B0006E20103084005E3083176A2090308400F8
:1000C000C83083176A2083010A128A155A2A040647
:1000D0008001840A0406031D67280034F0000A1218
:1000E0008A117C200A128A118000840A0408700692
:1000F000031D6F280034CC00CD1B85284D088A00D5
:100100004C08CC0A0319CD0A820083134D188317BB
:0A0110004C08CC0A84000008080027
:10011C0083120313C2000F30C3001030C4000A1640
:10012C008A1169270A128A11B12848300A168A11D5
:10013C000D260A128A11BE2856300A168A110D266F
:10014C000A128A11BE2847300A168A110D260A1285
:10015C008A11BE28BE28831203134208003A0319E1
:10016C009B28013A0319A228033A0319A928BE288F
:10017C000A168A1149260A128A11031383120800DF
:10018C008316031711089000582983160317910141
:10019C00910A6B2902308316031791000B308312DE
:1001AC000313BA00831603171F0883120313BB0033
:1001BC0083160317200883120313BC003A30BE00C9
:1001CC0000300A128A15FA210A128A110B30BA0071
:1001DC0083160317210883120313BB00831603171E
:1001EC00220883120313BC003A30BE0001300A12FD
:1001FC008A15FA210A128A110730BA00BB01BC0118
:10020C003A30BE0001300A128A15FA210A128A11FC
:10021C006B298316031792080319152916292C2903
:10022C00920103309100023083120313BA00143090
:10023C00BB00BC0110300317DB003A300313BE00C7
:10024C0002300A128A15FA210A128A116B298316B6
:10025C0003179308031933293429512993010B30BF
:10026C0083120313BA00831603171B08831203139C
:10027C00BB00831603171C0883120313BC003A300F
:10028C00BE0000300A128A15FA210A128A11633054
:10029C0083160317910063308316031791006B29A3
:1002AC006B296B29831603171008003A0319CB2806
:1002BC00013A0319D028033A03190F29013A0319FB
:1002CC002D29603A0319512956290313831208006A
:1002DC0083120313A301BA0103303A02031C7729DA
:1002EC0078297929082A1A30F100831203133A0865
:1002FC000A168A11D4250A128A110C3E103E84006B
:10030C00831780011A30F1003A080A168A11D42595
:10031C000A128A11123E103E8400831700308000AE
:10032C00840A003080001A30F1003A080A168A114B
:10033C00D4250A128A11143E103E84008317003013
:10034C008000840A003080001A30F1003A080A1646
:10035C008A11D4250A128A11163E103E8400831786
:10036C0080011A30F1003A080A168A11D4250A12B3
:10037C008A11173E103E8400831780011A30F10059
:10038C003A080A168A11D4250A128A11183E103E10
:10039C008400831780011A30F1003A080A168A117A
:1003AC00D4250A128A11193E103E8400831780014D
:1003BC001A30F1003A080A168A11D4250A128A1149
:1003CC00163E103E840083170A168A1119200A1251
:1003DC008A1180001A30F1003A080A168A11D425C5
:1003EC000A128A110E3E103E8400831700308000E2
:0403FC00840A00303F
:100400008000BA0A03303A02031C072A082A792915
:1004100083120317A7010230C1000A168A114A206D
:100420000A128A11F0000A168A114B200A128A1148
:10043000F10070089E0071089F0010308A000230A1
:10044000F0004920B800700A4920B9000A128A1148
:1004500003138312080083120313BA0103303A0214
:10046000031C332A342A352AF82F1A30F10083125C
:1004700003133A080A168A11D4250A128A110D3E6E
:10048000103E840083170008F2001A30F1003A0889
:100490000A168A11D4250A128A110C3E103E8400D5
:1004A000831772088000C82F831203133A080A16B4
:1004B0008A113E270A128A110038031D602A612A18
:1004C000902B3B30C2003A080A128A153F230A12C9
:1004D0008A111A30F1003A080A168A11D4250A1234
:1004E0008A110D3E103E840083173B0880001A30AD
:1004F000F1003A080A168A11D4250A128A11143E0C
:10050000103E8400831700308000840A0030800091
:10051000712B1A30F100831203133A080A168A115C
:10052000D4250A128A110E3E103E8400831700085B
:10053000F000840A0008F100F11F9F2AA02ADA2A9D
:100540001A30F1003A080A168A11D4250A128A11C3
:100550000D3E103E84008317023080001A30F100F7
:100560003A080A168A11D4250A128A110E3E103E44
:10057000840083170008F000840A0008F100F009E5
:10058000F109F00A0319F10A7008BE007108BF00F2
:100590001A30F1003A080A168A11D4250A128A1173
:1005A000123E103E840083173E088000840A3F08F4
:1005B0008000102B1A30F100831203133A080A1638
:1005C0008A11D4250A128A110D3E103E8400831729
:1005D000033080001A30F1003A080A168A11D42537
:1005E0000A128A110E3E103E840083170008F000A4
:1005F000840A0008F1007008BE007108BF001A30BC
:10060000F1003A080A168A11D4250A128A11123EFC
:10061000103E840083173E088000840A3F08800053
:100620008A2B1A30F100831203133A080A168A1132
:10063000D4250A128A110E3E103E8400831700084A
:10064000F000840A0008F10010308A003A083A07E6
:10065000F3004920F200730A4920F3000A128A11BC
:100660007008F202031CF3037108F3021A30F10060
:100670003A080A168A11D4250A128A11123E103E2F
:100680008400831772088000840A730880008A2B14
:100690001A30F100831203133A080A168A11D4257E
:1006A0000A128A11103E103E840083173C08800015
:1006B000840A3D0880008A2B1A30F100831203134C
:1006C0003A080A168A11D4250A128A11123E103EDF
:1006D000840083173C088000840A3D0880008A2B30
:1006E0008A2B1A30F100831203133A080A168A1172
:1006F000D4250A128A110D3E103E8400831700088B
:10070000053A0319892A023A0319112B0C3A0319E5
:10071000482B5C2B83120313AA01AB01AC019F2B66
:100720001A30F100831203133A080A168A11D425ED
:100730000A128A110D3E103E840083178001EF2FAC
:100740001A30F100831203133A080A168A11D425CD
:100750000A128A110D3E103E840083178001800A20
:10076000BB2B3B3083120313C2003A080A128A15CE
:100770003F230A128A11831203133A080A168A11B8
:100780003E270A128A1100380319C72BC82BB12B38
:10079000EF2F831203133A080A168A1114270A123C
:1007A0008A11A01CD42BD52BED2BE02B3B308312D0
:1007B0000313C2003A080A128A153F230A128A114B
:1007C000831203133A080A168A113E270A128A1165
:1007D00000380319EC2BED2BD62B1A30F1008312C5
:1007E00003133A080A168A11D4250A128A110D3EFB
:1007F000103E840083178001EF2F0A128A152C21E6
:100800000A128A11A01C052C062C152C1A30F10096
:100810003A080A168A11D4250A128A110D3E103E92
:100820008400831709308000252C1A30F1008312D0
:1008300003133A080A168A11D4250A128A110D3EAA
:10084000103E840083178001800AEF2F8312031368
:10085000A01C2B2C2C2C3B2C1A30F1003A080A1629
:100860008A11D4250A128A110D3E103E8400831786
:10087000093080004B2C1A30F100831203133A0820
:100880000A168A11D4250A128A110D3E103E8400E0
:1008900083178001800AEF2F1A30F10083120313AF
:1008A0003A080A168A11D4250A128A110E3E103E01
:1008B000840083170008F000840A0008F100700823
:1008C000BE007108BF001A30F1003A080A168A11FA
:1008D000D4250A128A11103E103E840083170008A6
:1008E000F000840A0008F1007108803AF2003F0825
:1008F000803A7202031D7E2C3E087002031C812C7C
:10090000822CD42C1A30F100831203133A080A16F1
:100910008A11D4250A128A110D3E103E84008317D5
:10092000023080001A30F1003A080A168A11D425E4
:100930000A128A110E3E103E840083170008F00050
:10094000840A0008F1007008BE007108BF001A3068
:10095000F1003A080A168A11D4250A128A11103EAB
:10096000103E840083170008F000840A0008F1009C
:100970003E08F002031CF1033F08F1027008C000BA
:100980007108C1001A30F1003A080A168A11D425FC
:100990000A128A11123E103E84008317400880001C
:1009A000840A41088000252D1A30F10083120313B8
:1009B0003A080A168A11D4250A128A110D3E103EF1
:1009C00084008317033080001A30F1003A080A16B9
:1009D0008A11D4250A128A11103E103E8400831712
:1009E0000008F000840A0008F1007008BE007108D9
:1009F000BF001A30F1003A080A168A11D4250A12EB
:100A00008A110E3E103E840083170008F000840A0D
:100A10000008F1003E08F002031CF1033F08F10258
:100A20007008C0007108C1001A30F1003A080A16B7
:100A30008A11D4250A128A11123E103E84008317AF
:100A400040088000840A41088000EF2F83120313BE
:100A5000A01C2B2D2C2D3B2D1A30F1003A080A1624
:100A60008A11D4250A128A110D3E103E8400831784
:100A700009308000C52F1A30F100831203133A08A1
:100A80000A168A11D4250A128A11173E103E8400D4
:100A900083170008F2001A30F1003A080A168A118A
:100AA000D4250A128A11183E103E84008317800A4A
:100AB0000008720203185D2D5E2D552F1A30F100CB
:100AC0003A080A168A11D4250A128A11143E103ED9
:100AD0008400831701308007840A0318800A840386
:100AE0000008F000840A0008F1007008BE007108D8
:100AF000BF001A30F1003A080A168A11D4250A12EA
:100B00008A11123E103E840083170008F000840A08
:100B10000008F1007108803AF2003F08803A720242
:100B2000031D942D3E0870020318972D982DE72D74
:100B3000CD2D1A30F100831203133A080A168A11D8
:100B4000D4250A128A110D3E103E84008317063008
:100B50008000E62D1A30F100831203133A080A16BA
:100B60008A11D4250A128A110D3E103E8400831783
:100B700008308000E62D1A30F100831203133A0882
:100B80000A168A11D4250A128A110D3E103E8400DD
:100B900083178001800AE62DE62D1A30F1008312BA
:100BA00003133A080A168A11D4250A128A110C3E38
:100BB000103E840083170008053A0319992D023A64
:100BC0000319AA2D0D3A0319992DBB2D552F1A3053
:100BD000F100831203133A080A168A11D4250A1267
:100BE0008A110C3E103E840083170008F2001A3070
:100BF000F1003A080A168A11D4250A128A110D3E0C
:100C0000103E84008317720880001A30F1003A0801
:100C10000A168A11D4250A128A11183E103E840041
:100C2000831780012E2F1A30F100831203133A0824
:100C30000A168A11D4250A128A110E3E103E84002B
:100C4000831701308007840A0318800A8403000890
:100C5000F000840A0008F1007008BE007108BF00AF
:100C600010308A003A083A07F1004920F000710A72
:100C70004920F1000A128A117108803AF2003F08F7
:100C8000803A7202031D462E3E0870020318492E58
:100C90004A2E602E1A30F100831203133A080A1606
:100CA0008A11D4250A128A110D3E103E8400831742
:100CB000093080003A080A128A1584200A128A1123
:100CC000023083120313C2003A080A128A15C023A5
:100CD0000A128A114D2F10308A00831203133A082A
:100CE0003A07F3004220F200730A4220F3000A128E
:100CF0008A111A30F1003A080A168A11D4250A120C
:100D00008A110E3E103E84008317FF308007840A4C
:100D10000318800AFF30800784030008F000840A6B
:100D20000008F1007108803AF4007308803A7402F8
:100D3000031D9C2E7208700203189F2EA02EB62E43
:100D40001A30F100831203133A080A168A11D425C7
:100D50000A128A110D3E103E84008317093080006C
:100D60003A080A128A15BC200A128A11033083122B
:100D70000313C2003A080A128A15C0230A128A1104
:100D80004D2F1A30F100831203133A080A168A1104
:100D9000D4250A128A110E3E103E840083170130BA
:100DA0008002840A031C800384030330C2003A08D3
:100DB0000A128A15C0230A128A114D2F1A30F10027
:100DC000831203133A080A168A11D4250A128A11CB
:100DD0000E3E103E840083170008F000840A0008CD
:100DE000F100F11FF42EF52E0F2F1A30F1003A0802
:100DF0000A168A11D4250A128A110E3E103E84006A
:100E0000831701308007840A0318800A0230C20069
:100E10003A080A128A15C0230A128A112B2F1A3097
:100E2000F100831203133A080A168A11D4250A1214
:100E30008A110E3E103E8400831701308002840A1E
:100E4000031C800384030330C2003A080A128A1587
:100E5000C0230A128A114D2F4D2F4D2F1A30F10049
:100E6000831203133A080A168A11D4250A128A112A
:100E70000C3E103E840083170008023A0319132E1B
:100E8000013A03196B2E063A0319DE2E023A0319B2
:100E9000132E0D3A0319C12E2C2F831203133A0877
:100EA0000A128A154D200A128A111A30F100831293
:100EB00003133A080A168A11D4250A128A110C3E25
:100EC000103E8400831700080A3A031D712F682F13
:100ED0003A082A3E8400831380080319712F702F6B
:100EE000732F722F982F3A080A128A118E200A1235
:100EF0008A111A30F1003A080A168A11D4250A120A
:100F00008A110D3E103E840083178001800A1A303A
:100F1000F1003A080A168A11D4250A128A110E3EE7
:100F2000103E8400831700308000840A0030800067
:100F30001A30F100831203133A080A168A11D425D5
:100F40000A128A110C3E103E840083170008073AEB
:100F5000031DB02FAB2FAC080319B02FAF2FB22F4A
:100F6000B12FC52F0A128A1501200A128A111A30D0
:100F7000F1003A080A168A11D4250A128A110D3E88
:100F8000103E840083178001800AEF2FEF2FEF2F90
:100F90001A30F100831203133A080A168A11D42575
:100FA0000A128A110C3E103E840083170008F000DC
:100FB0000C3070020318C62F07308A00E330700728
:100FC00003188A0A8200542AC92B262D262DC62FE3
:100FD000262D262C262DFD2BA02B262D4C2C8312C6
:100FE0000313BA0A03303A02031CF72FF82F352AED
:100FF00083120313A0100313831208000134013479
:101002002B3083120313C3001030C4000A168A1156
:1010120069270A128A150A168A1149260A128A159E
:10102200831603179201920A031383120800831294
:101032000313A501A6013C280B30F1008312031310
:1010420025080A168A11D4250A128A15A73E840099
:10105200831780010B30F10025080A168A11D42566
:101062000A128A15F000700AA73E840083178001D5
:10107200A50A0319A60A831203132608803AF00070
:1010820080307002033003192502031C49284A28C4
:101092001D2803138312080083120313C30074284C
:1010A200831203130808F039C2000317260803133A
:1010B200C2044208880081288312031308080F39EA
:1010C200C2000317400EF0390313C204420888001D
:1010D20081288316031796019701970A8312031337
:1010E200871581288128831203134308003A0319C4
:1010F2005128013A03195D28033A03196A28722814
:1011020003138312080083120313C2003B30C3008F
:101112001030C4000A168A1169270A128A15A728F4
:1011220048300A168A110D260A128A15B42856303A
:101132000A168A110D260A128A15B42847300A1691
:101142008A110D260A128A15B428B42883120313B1
:101152004208003A03199128013A03199828033AE0
:1011620003199F28B4280A168A1149260A128A15D9
:1011720003138312080083120313C2003330C30027
:101182001030C4000A168A1169270A128A15DF284C
:1011920048300A168A110D260A128A15EC28563092
:1011A2000A168A110D260A128A15EC2847300A16E9
:1011B2008A110D260A128A15EC28EC2883120313D1
:1011C2004208003A0319C928013A0319D028033A00
:1011D2000319D728EC280A168A1149260A128A15F9
:1011E20003138312080083120313BA002230C300D0
:1011F2001030C4000A168A1169270A128A151729A3
:1012020048300A168A110D260A128A1524295630E8
:101212000A168A110D260A128A15242947300A163F
:101222008A110D260A128A152429242983120313EE
:101232003A08003A03190129013A03190829033A25
:1012420003190F2924290A168A1149260A128A1516
:1012520003138312080045300A168A110D260A125A
:101262008A155F300A168A110D260A128A15433032
:101272000A168A110D260A128A1544300A168A1194
:101282000D260A128A1520300A168A110D260A1214
:101292008A1520300A168A110D260A128A15203064
:1012A2000A168A110D260A128A1520300A168A1188
:1012B2000D260A128A150A168A1149260A128A1559
:1012C20003138312080083120313BE003008310295
:1012D200031C6C296D2988293E08F000F1013108B0
:1012E200F200F3013008F202031CF3037308803AA0
:1012F200F4007108803A7402031D81297008720299
:10130200031C8429852987290130AB29A929831245
:1013120003133E08F000F1010830F2000030F30040
:101322003008F202031CF3033108F2070318F30A30
:101332007308803AF4007108803A7402031DA329ED
:1013420070087202031CA629A729A9290130AB291A
:101352000030AB2903138312080083120313C00168
:10136200B9299C3083120313BE07031CBF03C00AB2
:10137200831203133F08803AF00080307002643019
:1013820003193E020318C629C729B229831203137F
:101392004008303E0A168A110D260A128A15C0012B
:1013A200D929F63083120313BE07031CBF03C00AF8
:1013B200831203133F08803AF000803070020A3033
:1013C20003193E020318E629E729D22983120313DF
:1013D2004008303E0A168A110D260A128A153E0866
:1013E200303E0A168A110D260A128A150313831239
:0E13F200080083120313BF000B30F1003F0808
:101400000A168A11D4250A128A15F000700AA73E1E
:1014100084008317800A03300002031C102A112A5B
:101420001F2A0B30F1003F080A168A11D4250A1230
:101430008A15F000700AA73E84008317800183128A
:1014400003133E08840083130008F300840A000895
:10145000F400840A0008F5000B30F1003F080A167A
:101460008A11D4250A128A15F000700AA73E84005A
:1014700083170330F10000080A168A11D4250A12D6
:101480008A15F2000B30F1003F080A168A11D425A4
:101490000A128A15A73E7207023E8400831773085A
:1014A0008000840A74088000840A75088000031391
:1014B000831208000A168A1191260A128A150A1642
:1014C0008A1178260A128A150A128A1518200A1219
:1014D0008A150A128A116E210A128A150A168A11B1
:1014E000E0250A128A150A168A11C9250A128A15D8
:1014F0000A168A115F260A128A15AA01AB01AC01ED
:101500000A168A11CC270A128A150130C30010303E
:10151000C4000A168A1169270A128A150A168A1146
:1015200049260A128A158316031791019001C22ACF
:101530000A168A11FD250A128A150038031DA12AF0
:10154000A22AA72A0A128A155C240A128A15831273
:101550000313201CAC2AAD2AC22A20100A168A11B5
:10156000ED260A128A150A128A112B220A128A15EE
:101570000A168A11EE250A128A150A128A11C62045
:101580000A128A15982A0A128A114828831203130C
:10159000C001BF1FCC2ACD2AD52A2D300A168A11A8
:1015A0000D260A128A15BE09BF09DF2A18308312D8
:1015B0000313BE070318BF0AFC30BF07C00A83121B
:1015C00003133F08803AF00083307002E8300319BB
:1015D0003E020318EC2AED2AD62A83120313400890
:1015E000303E0A168A110D260A128A15FE2A9C30F0
:1015F00083120313BE07031CBF03C00A8312031325
:101600003F08803AF00080307002643003193E02D7
:1016100003180B2B0C2BF72A831203134008303EC0
:101620000A168A110D260A128A15C0011E2BF630E1
:1016300083120313BE07031CBF03C00A83120313E4
:101640003F08803AF000803070020A3003193E02F1
:1016500003182B2B2C2B172B831203134008303E1F
:101660000A168A110D260A128A153E08303E0A16FD
:101670008A110D260A128A15031383120800831299
:101680000313C3000B30F10043080A168A11D42556
:101690000A128A15F000700AA73E8400831700081A
:1016A000F2000B30F10043080A168A11D4250A1201
:1016B0008A15A73E8400831700087206031D612B5C
:1016C000622B652B0030BD2BBD2B0B30F10083123C
:1016D000031343080A168A11D4250A128A15A73E55
:1016E00084008317800A03300002031C782B792BB7
:1016F000852B0B30F10043080A168A11D4250A12F3
:101700008A15A73E8400831780010B30F1008312F5
:10171000031343080A168A11D4250A128A15A73E14
:10172000840083170330F10000080A168A11D425BB
:101730000A128A15F2000B30F10043080A168A11CA
:10174000D4250A128A15A73E7207023E8400831729
:101750000008F000840A0008F100840A0008F20082
:1017600042088400831370088000840A7108800096
:10177000840A720880000130BD2B03138312080015
:1017800083120313C3004303031DC72BC82BD52BA0
:101790004208023A031DCD2BCE2BD12B0330C200C1
:1017A000D52B023083120313C2002C2C1A30F10007
:1017B0008312031343080A168A11D4250A128A15C4
:1017C000193E103E84008317800A08300002031C73
:1017D000EA2BEB2BF82B1A30F10043080A168A117A
:1017E000D4250A128A15193E103E84008317800101
:1017F000362C1A30F1008312031343080A168A119B
:10180000D4250A128A15193E103E840083178008D9
:10181000031D0B2C0C2C1B2C1A30F10043080A164C
:101820008A11D4250A128A15193E103E84008317A6
:10183000073080002A2C1A30F1008312031343086A
:101840000A168A11D4250A128A15193E103E840000
:1018500083178003362C362C831203134208023A76
:101860000319D62B013A0319F92B362C1A30F10043
:101870008312031343080A168A11D4250A128A1503
:10188000193E103E8400831710308A00000818208B
:101890000A128A15F2001A30F10043080A168A115A
:1018A000D4250A128A15163E103E8400831772084A
:1018B0008000031383120800831203132D080A12F9
:1018C0008A1564210A128A150038031D682C692CB8
:1018D0006A2CFD2F83120313AD01AE01AF0803196B
:1018E000722C732C792CAF010A168A11AB260A12BE
:1018F0008A15CE2F0A168A11AB260A128A15613074
:101900000A168A110D260A128A152730BE002308EE
:101910000A128A15FA210A128A15F82F0230831248
:101920000313AD002D080A128A1564210A128A15C4
:10193000003803199C2C9D2CEB2C0A168A11AB261F
:101940000A128A150A168A11AB260A128A15BA00DB
:101950006D300A168A110D260A128A15DB2C8312A5
:101960000313A30168300A168A110D260A128A157C
:10197000E82C83120313A301A30A76300A168A11F6
:101980000D260A128A15E82C023083120313A300D5
:1019900067300A168A110D260A128A15E82CFF30C4
:1019A00083120313A30021300A168A110D260A128E
:1019B0008A15E82CE82C831203133A08673A0319B6
:1019C000C42C0F3A0319AF2C1E3A0319B92CCF2C93
:1019D00083120313AD01F82F023083120313AD00FD
:1019E0002D080A128A1564210A128A150038031973
:1019F000FA2CFB2C382D0A168A11AB260A128A15EE
:101A000063300A168A110D260A128A150A168A11DF
:101A1000AB260A128A15643A031D0F2D102D2F2DA7
:101A20002303031D142D152D282D0730A700A80111
:101A3000A9012730BE0023080A128A15FA210A12CA
:101A40008A1564300A168A110D260A128A152E2D5F
:101A500021300A168A110D260A128A15352D2130D9
:101A60000A168A110D260A128A1583120313AD0174
:101A7000F82F043083120313AD002D080A128A15C3
:101A800064210A128A1500380319472D482DD62DD6
:101A90000A168A11AB260A128A1568300A168A11AC
:101AA0000D260A128A150A168A11AB260A128A1501
:101AB0006F3A031D662D5C2D0A168A11AB260A1299
:101AC0008A156D3A031D662D652D682D672DBC2D79
:101AD0000A168A11AB260A128A15663A031D712D61
:101AE000722D9B2D0A30A70010308A00230823078F
:101AF000F0004920A800700A4920A9000A128A159E
:101B00002730BE0023080A128A15FA210A128A1504
:101B10006F300A168A110D260A128A156D300A16C0
:101B20008A110D260A128A1566300A168A110D26A8
:101B30000A128A15BB2D053083120313A700A801D2
:101B4000A9012730BE0023080A128A15FA210A12B9
:101B50008A156F300A168A110D260A128A156D3001
:101B60000A168A110D260A128A1565300A168A117C
:101B70000D260A128A15D32D0A168A11AB260A12CF
:101B80008A1521300A168A110D260A128A1521306B
:101B90000A168A110D260A128A1521300A168A1190
:101BA0000D260A128A1583120313AD01F82F043093
:101BB00083120313AD002D080A128A1564210A123C
:101BC0008A1500380319E52DE62D402E0A168A11D4
:101BD000AB260A128A150B30A7000A30F20000303B
:101BE000F3000A168A11AB260A128A15F000F101D9
:101BF0000A168A111F260A128A150A168A11AB269E
:101C00000A128A15F000F1017408F0070318F10AAE
:101C10007508F1070A30F2000030F3000A168A1145
:101C20001F260A128A150A168A11AB260A128A156D
:101C3000F000F1017408F0070318F10A7508F107C4
:101C400030307007A800EB300318EC307107A900A2
:101C50002730BE0023080A128A15FA210A128A15B3
:101C600067300A168A110D260A128A152808BE0046
:101C70002908BF000A128A15AE210A128A15AD0181
:101C8000F82F043083120313AD002D080A128A15B1
:101C900064210A128A15003803194F2E502EAA2EDD
:101CA0000A168A11AB260A128A150230A7000A30DA
:101CB000F2000030F3000A168A11AB260A128A15C8
:101CC000F000F1010A168A111F260A128A150A1657
:101CD0008A11AB260A128A15F000F1017408F00788
:101CE0000318F10A7508F1070A30F2000030F3001A
:101CF0000A168A111F260A128A150A168A11AB269D
:101D00000A128A15F000F1017408F0070318F10AAD
:101D10007508F10730307007A800EB300318EC307D
:101D20007107A9002730BE0023080A128A15FA217C
:101D30000A128A1566300A168A110D260A128A15A9
:101D40002808BE002908BF000A128A15AE210A120F
:101D50008A15AD01F82F043083120313AD002D084E
:101D60000A128A1564210A128A1500380319B92E3D
:101D7000BA2E142F0A168A11AB260A128A150330BE
:101D8000A7000A30F2000030F3000A168A11AB26D1
:101D90000A128A15F000F1010A168A111F260A128A
:101DA0008A150A168A11AB260A128A15F000F1016B
:101DB0007408F0070318F10A7508F1070A30F200F9
:101DC0000030F3000A168A111F260A128A150A1615
:101DD0008A11AB260A128A15F000F1017408F00787
:101DE0000318F10A7508F10730307007A800EB30CE
:101DF0000318EC307107A9002730BE0023080A122F
:101E00008A15FA210A128A1572300A168A110D26CD
:101E10000A128A152808BE002908BF000A128A156E
:101E2000AE210A128A15AD01F82F04308312031374
:101E3000AD002D080A128A1564210A128A1500388D
:101E40000319232F242F772F0A168A11AB260A1283
:101E50008A150A30F1000A168A11AB260A128A1571
:101E60000A168A11D4250A128A15F0000A168A1158
:101E7000AB260A128A157007F0000A30F1007008CC
:101E80000A168A11D4250A128A15F0000A168A1138
:101E9000AB260A128A157007303EF2001A30F100A4
:101EA00023080A168A11D4250A128A15173E103EF5
:101EB000840083177208800076300A168A110D2676
:101EC0000A128A151A30F10023080A168A11D4253D
:101ED0000A128A15173E103E840083170008BE00C0
:101EE000BF010A128A15AE210A128A15AD01F82F18
:101EF0000A168A11AB260A128A1573300A168A113D
:101F00000D260A128A15A014AD01F82F0A168A119F
:101F1000AB260A128A1570300A168A110D260A128B
:101F20008A151A30F10023080A168A11D4250A12DC
:101F30008A150E3E103E840083170008BE00840AF6
:101F40000008BF000A128A15C6220A128A15AD01BE
:101F5000F82F0A168A11AB260A128A1574300A164F
:101F60008A110D260A128A15C8080319B82FB92F2D
:101F7000BB2FC801BF2F83120313C801C80AF82F53
:101F80000A168A11AB260A128A15AD013F300A16CD
:101F90008A110D260A128A15F82FF82F0A168A11AF
:101FA000CB260A128A15003A0319BF2F613A03198A
:101FB0007A2C023A0319EC2C053A0319412E013A06
:101FC0000319D72D0F3A0319392D053A03198E2C11
:101FD0001D3A0319862F023A0319AB2E013A031951
:101FE000782F073A0319A92F023A0319152FC02F8A
:101FF0000A168A1149260A128A1503138312080049
:10200000820752344F3442344F3454344F342034E6
:1020100052344534413444345934003482074F3407
:102020004B345F3448344F344D3445342D34003410
:1020300082070934013403340234063404340C3486
:102040000834820745345F3448344F344D344534C6
:102050002D34003482074F344B345F3443344434DE
:102060002D340034820745345F344D3449344E34C6
:102070002D340034820745345F344D3441345834B4
:102080002D34003482073834FF34FE34FF34F0340A
:10209000D8348207523403342034033410342734C4
:102B8C000313831208008316031381128B1683120E
:102B9C00920183168C10031383120800F00000308E
:102BAC00711870070310F00D0310F10CF108031DE0
:102BBC00D62D080004308316031795009601970153
:102BCC009801980A99019A019A0A03138312080032
:102BDC00C93083120313A20A2202031CF62DF72D0F
:102BEC00FA2D01308706A201031383120800831209
:042BFC000313300887
:102C00003106031D042E052E082E01300A2E0A2E31
:102C100000300A2E03138312080083120313C60028
:102C2000122E0000831203130C1E172E182E112EC5
:102C30008312031346089900031383120800F4015A
:102C4000F5010310F30CF20C031C2C2E7008F40792
:102C500071080318710AF5070310F00DF10D7208E1
:102C60007304031D212E0034083083120313B10AAC
:102C70003102031C3C2E3D2E3E2EB1018312031364
:102C80003108323E840083131A0880000313831234
:102C9000080083120313C80803194F2E502E5C2E10
:102CA0000A300A168A110D260A168A110D300A16E4
:102CB0008A110D260A168A1103138312080083163F
:102CC00003179B019C012C309D0001309E00C830F1
:102CD0009F00A001C830A100A2019030A3000130E4
:102CE000A4005830A1000230A20003138312080090
:102CF00083120313B001B101AF01AD01AE01831620
:102D000018150C309900831298178316981618120C
:102D10008312181683160C128C160B1703138312CA
:102D200008000F30831603138500FF308600A030A3
:102D30008700880189018312880183168117073073
:102D40009F000B100B118B128B158B17831207141E
:102D50000313831208008312031330083106031D86
:102D6000B22EB32EB62E0030C82EC82E08308312D5
:102D70000313B00A3002031CBE2EBF2EC02EB001BA
:102D8000831203133008323E840083130008C82ED8
:102D90000313831208008312031330083106031D46
:102DA000D22ED32ED62E0030EA2EEA2E8312031313
:102DB0003008BE000830BE0A3E02031CE02EE12EA1
:102DC000E22EBE01831203133E08323E84008313B9
:102DD0000008EA2E03138312080083120313050868
:102DE0000239F0000310700C0319F72EF82EFA2E9A
:102DF000AA01AA0A8312031305080439F00003107C
:102E0000F00C0310700C031D062F072F092FAB01C8
:102E1000AB0A83120313051C0E2F0F2F112FAC01C9
:102E2000AC0A03138312080083120313C3002E2F6E
:102E3000831203130808F039C200420888003B2FB0
:102E40008312031308080F39C200420888003B2F81
:102E50008312031387113B2F3B2F3B2F8312031346
:102E60004308003A0319182F013A0319202F033A97
:102E70000319282F2C2F0313831208008312031326
:102E8000C2000B30F10042080A168A11D4250A1636
:102E90008A11F000700AA73E840083170008F20030
:102EA0000B30F10042080A168A11D4250A168A113D
:102EB000A73E8400831700087206031D602F612F50
:102EC000642F0130662F662F0030662F03138312A4
:102ED000080083120313C501822F831203134508D0
:102EE0004307CC004408CD004C080318CD0A0A1251
:102EF0008A117B200A168A110A168A110D260A16D3
:102F00008A11C50A8312031345084307CC004408FD
:102F1000CD004C080318CD0A0A128A117B200A162C
:102F20008A110038031D952F962F6D2F03138312DE
:102F3000080083120313A10A21080A3A031DA12FD6
:102F4000A22FC92FA1018316031797080319A92FD0
:102F5000AA2FB72F960A160815020318B02FB12F03
:102F6000B72F831203138711831603179701831654
:102F700003179A080319BD2FBE2FC92F990A1908E4
:102F800018020318C42FC52FC92F990183120313E8
:102F900020140313831208000A3083120313BA00AB
:102FA0000A168A114A200A168A11F0000A168A1196
:102FB0004B200A168A11F1007008BB007108BC0092
:102FC0003A30BE0000300A128A15FA210A168A1118
:102FD0000A30BA0010308A000230F0004920BB00ED
:102FE000700A4920BC000A168A113A30BE0001302E
:102FF0000A128A15FA210A168A110313831208008D
:00000001FF
