:1000000022C03CC03BC03AC039C038C037C036C03F
:1000100035C034C033C032C031C0D5CA2FC02EC0A5
:100020002DC02CC03AC62AC088C628C027C026C00A
:1000300025C024C030313233343536373839414267
:1000400043444546000011241FBECFEFD4E0DEBF7D
:10005000CDBF11E0A0E0B1E0E4EBFFE102C005900C
:100060000D92A63BB107D9F712E0A6EBB1E001C0B3
:100070001D92A63AB107E1F733DE9ACFC1CF0396BE
:1000800066E070E044DF80E090E0660F771F881F35
:10009000991F660F771F881F991F660F771F881F8C
:1000A000991FCB01672B41F020E030E0A8952F5F2E
:1000B0003F4F28173907D0F308950F931F93CF931D
:1000C000DF938C01009749F0C0E0D0E084E690E037
:1000D000D6DF2196C017D107C8F3DF91CF911F91CA
:1000E0000F910895F999FECF92BD81BD60BDFA9A36
:1000F000F99A0895F999FECF92BD81BDF89A80B51D
:1001000008950F931F938C0188E993E0BDD4C80133
:100110000ED582E297E0B8D41F910F9108950F9306
:100120001F93182F062F88E993E0AED4812F602FFC
:1001300065D582E297E0A8D41F910F9108950F939F
:100140001F938C0188E993E09FD4C801E8D482E230
:1001500097E09AD41F910F9108951F93182F88E963
:1001600093E092D4812FD2D482E297E08DD41F9174
:1001700008951F93182F88E993E086D4812FC0D467
:1001800082E297E081D41F9108950F931F938C0111
:1001900088E993E079D4C8017CD482E297E074D4F2
:1001A0001F910F910895EF92FF920F931F93182FB5
:1001B000062F7A0188E993E067D4812F602FCDD292
:1001C000C70167D482E297E05FD41F910F91FF903F
:1001D000EF9008958093CB0108950F931F93142FF0
:1001E000022FBBD2812F61E09ADF80E091E0CDDF6A
:1001F000802F61E094DF1F910F9108951F93A895C0
:10020000FCD1833009F486C08430F1F18091B601CD
:10021000813009F48FC0813008F087C0B9D28CE1F9
:1002200091E0B3DF8091B701882309F4C1C010E0E9
:1002300086E291E0AADF1F5F8091B7011817C0F333
:100240008F5F8093B701873010F01092B70180E084
:1002500061E048E251E0A7DF80915A0290915B0291
:1002600050DF87E061E04091900220918F02B5DF7E
:100270008DE061E072D28091600261E050DF85E143
:1002800091E083DF1F9108958091B601882309F0E2
:1002900083C082E08093B60145DA7AD280E060E0E4
:1002A0005CD280915902813009F47AC0823009F41D
:1002B0007BC088E091E069DF84E060E040917202F9
:1002C000209171028ADF89E060E047D28BE091E003
:1002D0005CDF8BE060E040917C0220917B027DDF5F
:1002E00080E061E04EE051E05EDF80915C02909141
:1002F0005D0207DF88E061E04091680220916702BB
:100300006CDF80E091E041DF8091660261E007DF11
:100310001F9108958091B6018F5F8093B60183305D
:1003200008F476CF1092B60179CF823009F4B4CFB9
:100330001F9108952DD28091A2029091A302E1DE37
:1003400081E191E022DF8091600261E0E8DE85E1F9
:1003500091E01BDF8091A4029091A502D2DE87E19B
:1003600091E013DF80E061E04091900220918F02E4
:1003700034DF8AE191E009DF80915E0290915F02B3
:10038000C0DE8AE191E001DF8091880090918900D0
:1003900060E0C5DE1F91089581508093B60138CF8B
:1003A00082E091E0F2DE88CF85E091E0EEDE84CF5E
:1003B00081E08093B7014BCF0F931F93DF93CF93CF
:1003C00000D00F92CDB7DEB7A895E2D1CE0101964D
:1003D000BE016E5F7F4FAE014D5F5F4FA2D584E0DF
:1003E00061E0BBD1898161E09ADE00E011E0C801E3
:1003F000CCDE8A8161E093DEC801C7DE8B8161E0DB
:100400008EDE83E060E04BE251E0CDDE0F900F9096
:100410000F90CF91DF911F910F910895DF92EF928E
:10042000FF920F931F93DF93CF9300D00F92CDB71E
:10043000DEB7182FADD183E060E046E351E0B3DED4
:10044000CE010196BE016E5F7F4FAE014D5F5F4FE3
:1004500068D51B8286E08093C80181E08093C90142
:1004600086E061E07AD18EE04ED185E06091C901ED
:1004700049812A81B2DEA89588E99AE300DE2BE360
:10048000E22E97E1D92E06E089E0F82EA89580911A
:10049000C8016091C90161D1B0D08823B9F383301C
:1004A00009F443C0843080F4813091F1823071F7D7
:1004B0008091C8018F5F8093C801873011F08A3026
:1004C00028F3F092C801E2CF843091F08530F1F644
:1004D000113009F451C08CE016D10F900F900F909D
:1004E000CF91DF911F910F91FF90EF90DF900895D2
:1004F0008091C801873050F589818150898387FDBB
:1005000039C085E06091C90149812A8166DEBECF8C
:100510008091C80181508093C801883019F08630DD
:1005200008F0B4CF0093C801B1CF8091C8018730E3
:10053000A0F489818F5F898388311CF3198285E05B
:100540006091C90149812A8148DEA0CF8A8181500A
:100550008A8387FFD6CFEA82D4CF8A818F5F8A834E
:100560008C337CF21A8285E06091C90149812A812D
:1005700034DE8CCFD982C5CF89816A814B8184D406
:100580001092CB01A8CF39D0A8959091CB01992397
:10059000A1F48823C1F48DEC91E06EEC71E04FEC96
:1005A00051E0BFD49091CF018091D001981739F0DC
:1005B0009093D00180E000DF0895913009F0089514
:1005C00081E02CDF08958530D1F780914B0288239C
:1005D000B1F781E08093CB010895813059F08130EB
:1005E00018F43B9A43980895833009F008953B9896
:1005F000439A08953B9A439A0895EF92FF920F937E
:100600001F93A895EAB0FBB08AB187708AB98BB105
:10061000886F8BB980E0E1DF49B1487F483FA1F1A5
:10062000242F30E046FF2EC0C901969587959695F8
:10063000879596958795082F0095017025FF04E012
:1006400024FF03E047FF05E08BE490E09093D201A4
:100650008093D10110E080EA9FE011DD1F5F212F20
:1006600030E08091D1019091D2012817390798F399
:10067000EAB8FBB883E0B1DF802F1F910F91FF90A4
:10068000EF90089502E0DACF00E0F2CF882311F472
:100690005A9808955A9A0895882311F42A9808952B
:1006A0002A9A0895882311F428980895289A08957D
:1006B0005AE000005A95E9F7089528982A985AE0D8
:1006C00000005A95E9F79AB1906F9AB99BB1282F1B
:1006D000207F9F70292B2BB92A9A5AE000005A9547
:1006E000E9F72A989BB18295807F9F70982B9BB9E0
:1006F0002A9A5AE000005A95E9F72A985AE0000031
:100700005A95E9F708952A985A985AE000005A95A0
:10071000E9F7D3DF5AE000005A95E9F75AE0000004
:100720005A95E9F75AE000005A95E9F72A98089592
:100730002A985A9A5AE000005A95E9F7BEDF5AE023
:1007400000005A95E9F75AE000005A95E9F75AE097
:1007500000005A95E9F72A980895623099F06330BD
:1007600079F0613059F08068CEDF80E05AE0000017
:100770005A95E9F78F5F8931C9F70895805CF3CF07
:100780008C5AF1CF8C5EEFCF80E060E0E6DF089519
:100790000F931F9301E411E080E090E060E070E0CF
:1007A000A80101DD80E090E061E070E0A801FBDCE1
:1007B00080E060E0D2DF1F910F9108955A98289849
:1007C0002A98529A209A229A8AB18F708AB98BB14C
:1007D000806F8BB988E297DF60E67AEE80E090E088
:1007E0004EDC86E090DF8CE08EDF82E08CDF80E8FC
:1007F0008ADF0895E3DFCCDF60E67AEE80E090E008
:100800003EDCC2DF60E67AEE80E090E038DC0895FE
:100810002091B9002E7F2093B9002091B9002D7F3F
:100820002093B9009C0140E050E060E47FE180E06B
:1008300090E0A3DB203130F0822F90E04097959537
:100840008795282F2093B8000895449A459A84E606
:1008500090E0DEDFECEBF0E08081846080838081DB
:100860008064808381E08093BA00089590E06111F4
:1008700091E08E7F982B9093BA000895ECEBF0E016
:1008800080818F70806A80830895ECEBF0E0808136
:100890008F70806D808308958091BC0087FFFCCFAE
:1008A00008958093BB008091BC008F708068809316
:1008B000BC008091BC0087FD07C094E18091BC0022
:1008C00087FD02C09150D1F70895882339F48091B3
:1008D000BC008F7080688093BC0008958091BC003C
:1008E0008F70806C8093BC0008958091BB00089548
:1008F0008091B9000895982FFA018091BC008E7FF5
:100900008093BC008091BC008F70806A8093BC0093
:100910008091BC0087FFFCCF892F90E0880F991F42
:100920008093BB008091BC008F7080688093BC0076
:100930008091BC0087FD07C094E18091BC0087FDD9
:1009400002C09150D1F78091BC0087FFFCCF80910D
:10095000B9008831B9F091E08091BC008F70806D52
:100960008093BC008091BC0084FFFCCF8091BC00D0
:1009700081608093BC00892F08958091BC0087FF1F
:10098000FCCF61506623C9F081918093BB008091B8
:10099000BC008F7080688093BC008091BC0087FD94
:1009A000ECCF94E18091BC0087FDE7CF9150D1F767
:1009B0008091BC0087FFE1CFE4CF90E0CDCF282F1E
:1009C000DA018091BC008E7F8093BC008091BC00D6
:1009D0008F70806A8093BC008091BC0087FFFCCF41
:1009E000220F21602093BB008091BC008F70806833
:1009F0008093BC008091BC0087FD07C024E18091FA
:100A0000BC0087FD02C02150D1F78091BC0087FF58
:100A1000FCCF8091B900803471F091E08091BC00EE
:100A20008F70806D8093BC008091BC00816080934A
:100A3000BC00892F08956230C0F0262FFD018091FF
:100A4000BC008F70806C8093BC008091BC0087FFDD
:100A5000FCCF8091BB0081932150223080F76250FF
:100A6000862F90E00196A80FB91F8091BC008F706F
:100A700080688093BC008091BC0087FFFCCF809190
:100A8000BB008C9390E0CACF9093B9018093B801DA
:100A90000895CF93DF93EC018881882349F0219654
:100AA000E091B801F091B901099588818823B9F7DF
:100AB000DF91CF910895CF93DF93EC01FC018491F6
:100AC000882361F0FE018491E091B801F091B901B1
:100AD00009952196FE0184918823A1F7DF91CF919A
:100AE0000895E82FF0E0EF70F070EC5CFF4FE491B8
:100AF0002091B8013091B9018E2FF901099508951F
:100B0000E091B801F091B901099508951F93182F4C
:100B100082958F70E6DF812FE4DF1F9108951F9388
:100B2000182F892FF3DF812FF1DF1F910895EF92A6
:100B3000FF920F931F937C0168EE73E0E8D98B015D
:100B40006115710509F453C0E091B801F091B90144
:100B5000862F805D099588EE93E09C01029FC0017D
:100B6000039F900D129F900D1124E81AF90AC701F6
:100B700064E670E0CCD98B01E091B801F091B90145
:100B8000862F805D099584E690E09C01029FC0015C
:100B9000039F900D129F900D1124E81AF90AC701C6
:100BA0006AE070E0B4D9162F072FE091B801F091F8
:100BB000B901862F805D0995812F902F9C01220F0E
:100BC000331F220F331F220F331F880F991F280F47
:100BD000391FE21AF30AE091B801F091B9018E2DA4
:100BE000805D09951F910F91FF90EF900895E0911E
:100BF000B801F091B90180E20995ADCFFF920F9352
:100C00001F93DF93CF930F92CDB7DEB7F82E262F29
:100C100064E671D9982F8823B9F5222361F10CE994
:100C20001FEF909F002D11240F0D802F6AE063D9D4
:100C3000F82EE091B801F091B901805D0995005D51
:100C40008F2D90E09C01220F331F220F331F220FA4
:100C5000331F880F991F280F391FE091B801F091B9
:100C6000B901802F821B09950F90CF91DF911F91C1
:100C70000F91FF900895E091B801F091B90180E2E1
:100C8000998309959981CBCFE091B801F091B90191
:100C9000805D998309959981C2CF1F920F920FB6FB
:100CA0000F9211248F939F93EF93FF93F894E09109
:100CB000D501F0E08091C600EC52FE4F87A3109260
:100CC000DA01E091D501F0E0EC52FE4F87A18436C5
:100CD000B9F08091D5018F5F8093D5018091D501C6
:100CE0008E3120F01092D5011092D6017894FF91A8
:100CF000EF919F918F910F900FBE0F901F901895BD
:100D000081E08093D6018091D501882361F090E045
:100D1000E92FF0E0EC52FE4F87A181879F5F809121
:100D2000D5019817A8F381E08093DB018091D5016C
:100D30008093DC011092D501D9CF1F920F920FB68C
:100D40000F9211248F939F93EF93FF93F8948091C8
:100D5000C00085FF1AC09091190280911A0298175D
:100D6000E9F0E0911902F0E0E75EFD4F83818093A6
:100D7000C600809119028F5F809319028091190239
:100D80008E3110F0109219027894FF91EF919F919B
:100D90008F910F900FBE0F901F90189510921B020D
:100DA0007894F3CF1092D4011092D5011092D6010D
:100DB0001092D7011092D8011092D90180E090E0F2
:100DC000FC01EC52FE4F17A201968E319105C1F73E
:100DD0000895E1ECF0E088E1808380818068808381
:100DE0001092190210921A0210921B02DBDF089572
:100DF0009B01AC01605C7D4B804F9F4F660F771F5E
:100E0000881F991F660F771F881F991F660F771F0E
:100E1000881F991F220F331F441F551F220F331F96
:100E2000441F551F220F331F441F551F220F331F0E
:100E3000441F551F80D8215030402093C400309368
:100E4000C5000895982F8091C00085FFFCCF909336
:100E5000C6008091C00085FFFCCF08958091C0003E
:100E600087FFFCCF8091C60008959EE09093BA0161
:100E70008370880F880F880F8093BB0188E662E03B
:100E80004AEB51E038DD0895F82FE62F1092BA01B1
:100E9000842F6AE030D8582F5295507F540F282F56
:100EA00030E0C901880F991F880F991F880F991F7B
:100EB000220F331F820F931F581B5093BB018E2F9D
:100EC0001AD8482F4295407F4E0F282F30E0C90195
:100ED000880F991F880F991F880F991F220F331FA2
:100EE000820F931F481B4093BC018F2F04D8482FBB
:100EF0004295407F4F0F282F30E0C901880F991F7E
:100F0000880F991F880F991F220F331F820F931F7D
:100F1000481B4093BD0188E664E04AEB51E0EBDCFE
:100F20000895AF92BF92CF92DF92EF92FF920F930C
:100F30001F935C016B017A010AEB11E01092BA0178
:100F400088E661E0A801D7DC88E663E0A80137DD28
:100F50008091BA012091BA0182958F703AE0839F07
:100F6000C00111242F70280FF70120838091BB014D
:100F70002091BB0182958F70839FC00111242F7037
:100F8000280FF60120838091BC012091BC0182953D
:100F90008F70839FC00111242F70280FF5012083CB
:100FA0001F910F91FF90EF90DF90CF90BF90AF9087
:100FB00008953A9A882311F442980895429A089520
:100FC0003A9A3998419A429A86B18695809581706D
:100FD00008959C011092C0011092BF018091BF0141
:100FE0009091C0018217930748F40000A895809162
:100FF000BF019091C00182179307B8F30895109232
:101000008100089581E08093810008959093890084
:1010100080938800089580918800909189000196BE
:101020009093890080938800809188009091890036
:10103000892B31F48FEF90E09093890080938800A2
:1010400008958091880090918900892B49F08091C2
:10105000880090918900019790938900809388007F
:10106000089580918800909189000197C9F020919E
:1010700084003091850080918800909189008217CA
:101080009307A8F320918800309189008091840013
:101090009091850082179307A8F31092810008951C
:1010A00080918400909185000397D0F7809184000F
:1010B00090918500029788F7809184009091850037
:1010C0000297A0F3EACFA895882319F510927C0027
:1010D00048E020E030E080917A00806480937A00DC
:1010E00080917A0084FFFCCF809178009091790004
:1010F000280F391F415079F780917A008B7F8093B8
:101100007A00359527953595279535952795C90109
:101110000895813021F048E020E030E0DCCF80937A
:101120007C0048E020E030E0D6CF9BDF85B18F73B4
:1011300085B9089524E530E0AC01429FC001439F8A
:10114000900D529F900D11246AE070E0E0D6CB0123
:1011500008959C01220F331F280F391FA901440F46
:10116000551F440F551F440F551F420F531FCA01EF
:10117000089583B182958F7080958170089584B1B0
:10118000886284B924982C9A2D982B9A08951092ED
:10119000C0011092BF018091BF019091C0018B34BA
:1011A000910548F40000A8958091BF019091C0017D
:1011B0008B349105B8F308951092C0011092BF01CD
:1011C0008091BF019091C0010A9740F40000A8955A
:1011D0008091BF019091C0010A97C0F30895382F04
:1011E000A89520E037FF43C02B9A1092C0011092BF
:1011F000BF018091BF019091C0010A9740F40000A7
:10120000A8958091BF019091C0010A97C0F32D9AD3
:101210001092C0011092BF018091BF019091C00156
:101220008B34910548F40000A8958091BF019091FE
:10123000C0018B349105B8F32D981092C001109223
:10124000BF018091BF019091C0018B34910548F49A
:101250000000A8958091BF019091C0018B34910549
:10126000B8F32F5F283029F0330F37FDBDCF2B980F
:10127000BCCF08950F931F93CF93DF93082F162FA2
:10128000A895662341F09C01E9018991A8DF9E01A0
:10129000201B2117D0F3DF91CF911F910F9108955B
:1012A000A89530E020E02D9A1092C0011092BF0165
:1012B0008091BF019091C0018B34910548F40000EA
:1012C000A8958091BF019091C0018B349105B8F32E
:1012D000220F1C9921602D981092C0011092BF011D
:1012E0008091BF019091C0018B34910548F40000BA
:1012F000A8958091BF019091C0018B349105B8F3FE
:101300003F5F383081F6822F08950F931F93CF935C
:10131000DF93082F162FA895662341F09C01E90161
:10132000BFDF89939E01201B2117D0F3DF91CF915E
:101330001F910F910895BF92CF92DF92EF92FF928B
:101340000F931F93CF93DF937C016B01B42EA8956D
:10135000FC0100818FEF43DF80E041DF82E43FDF6B
:10136000E70110E089913BDF1F5F1530D9F710923C
:10137000C0011092BF018091BF019091C0018F5FA9
:101380009F4348F40000A8958091BF019091C0014F
:101390008F5F9F43B8F3C60165E0B7DFF601608158
:1013A000262F30E0802F90E040962817390759F01B
:1013B00081E0DF91CF911F910F91FF90EF90DF902F
:1013C000CF90BF900895BB2051F0F701958120E0A8
:1013D00080E0691381E02F5F2530D9F7EACF80E004
:1013E000E8CFEF92FF920F931F93DF93CF93CDB788
:1013F000DEB72A970FB6F894DEBF0FBECDBF80E5EB
:10140000898356E0E52EF12CEC0EFD1E8E010F5F58
:101410001F4FC801B70140E08EDFC801B70140E0AF
:101420008ADFC801B70140E086DF2A960FB6F8943C
:10143000DEBF0FBECDBFCF91DF911F910F91FF9007
:10144000EF900895DF93CF93CDB7DEB72A970FB60D
:10145000F894DEBF0FBECDBF83E58983CE01019630
:10146000BE016A5F7F4F40E066DF9F8180E0288594
:10147000AC01420F511D9A014115510531F52091E2
:101480005E0230915F022115310521F18BE393E07B
:10149000821B930B65E170E03AD5675E7F4F7093D6
:1014A0006102609360022C53334030F089E190E098
:1014B00090936102809360022A960FB6F894DEBF83
:1014C0000FBECDBFCF91DF91089550935F0240933F
:1014D0005E02DCCF8BE393E090935F0280935E0229
:1014E00089E190E09093610280936002E5CFDF9301
:1014F000CF93CDB7DEB72A970FB6F894DEBF0FBEF5
:10150000CDBF85E28983CE010196BE016A5F7F4F20
:1015100040E011DF8F818093720288858093710291
:10152000898580937C028A8580937B0280E02A965D
:101530000FB6F894DEBF0FBECDBFCF91DF910895F7
:10154000DF93CF93CDB7DEB72A970FB6F894DEBFFF
:101550000FBECDBF82E58983CE010196BE016A5FD1
:101560007F4F40E0E8DE9F8180E02885820F911D5B
:1015700090935D0280935C0280E02A960FB6F89407
:10158000DEBF0FBECDBFCF91DF910895DF93CF9324
:10159000CDB7DEB72A970FB6F894DEBF0FBECDBF2A
:1015A00089E58983CE010196BE016A5F7F4F40E0E5
:1015B000C2DE80E02A960FB6F894DEBF0FBECDBF24
:1015C000CF91DF9108951F920F920FB60F921124C1
:1015D0008F939F93F89480914402813039F18091E8
:1015E0004402882379F48091880090918900892BA6
:1015F00049F080918800909189000197909389002B
:101600008093880082E0809344028091BF01909192
:10161000C00101969093C0018093BF0178949F917F
:101620008F910F900FBE0F901F901895809188009A
:101630009091890001969093890080938800809111
:10164000880090918900892BE9F68FEF90E09093C4
:10165000890080938800D6CF9BD886E060E04091D7
:10166000680220916702B9D586E591E08ED5809118
:10167000660261E054D581E061E040917202209100
:101680007102ABD587E061E068D888E591E07DD54F
:101690008AE061E040917C0220917B029ED5089512
:1016A000CF92DF92EF92FF921F93DF93CF93CDB74C
:1016B000DEB72A970FB6F894DEBF0FBECDBF86E522
:1016C00089838EE392E06DE372E04CE352E029DC23
:1016D00080913E028A8380913D028B8380913C02FF
:1016E0008C8313E066E0C62ED12CCC0EDD1E7E016D
:1016F0000894E11CF11CC701B60141E01CDE8823FF
:1017000019F01150C1F781E02A960FB6F894DEBFA8
:101710000FBECDBFCF91DF911F91FF90EF90DF9073
:10172000CF900895DF93CF93CDB7DEB72A970FB64A
:10173000F894DEBF0FBECDBF6EE372E0AB01425046
:101740005040CB0161507040ECDB85E58983CE01D0
:101750000196BE016A5F7F4F40E0EDDD8F8180938F
:10176000680288858093670289858093660280E09D
:101770002A960FB6F894DEBF0FBECDBFCF91DF9192
:1017800008952F923F924F925F926F927F928F9225
:101790009F92AF92BF92CF92DF92EF92FF920F9300
:1017A0001F93DF93CF93CDB7DEB728970FB6F8948A
:1017B000DEBF0FBECDBF3C015B015E834D83122FA8
:1017C0002E982F9A82E090E0909389008093880071
:1017D00081E08093810081E090E0909347028093C4
:1017E0004602509397024093960286E892E065E89D
:1017F00072E0AE014D5F5F4F94DB10929902109240
:10180000980210929B0210929A02C3016AE070E063
:101810007ED34B0163011C82EE24FF2404E6A0EA80
:101820004A2EA2E05A2E212F30E038872F83F1E094
:101830002F2E312C29C02091A4023091A502C2166E
:10184000D30608F458C08A159B0518F02C153D05E1
:1018500048F4809146029091470201969093470286
:1018600080934602809146029091470202970CF4C1
:1018700052C0309247022092460281E08093440297
:10188000442309F056C0012FA89580E01CDC9C0180
:1018900090939F0280939E02880F991F820F931F3F
:1018A0009C01220F331F220F331F220F331F820F81
:1018B000931F9093A3028093A20281E004DC8093A3
:1018C000A002F201918336DC9093A5028093A402DA
:1018D0000894E11CF11CF9E8EF16F3E1FF0608F0AB
:1018E00042C0102F40E08091A2029091A302A8165E
:1018F000B90608F0A0CF8091460290914702019767
:10190000909347028093460280914602909147024D
:1019100002970CF0AECF80914602909147021816C4
:1019200019060CF098C072E070934402442309F445
:10193000AACF842F28960FB6F894DEBF0FBECDBF76
:10194000CF91DF911F910F91FF90EF90DF90CF909B
:10195000BF90AF909F908F907F906F905F904F90CF
:101960003F902F90089580E049D4CE010196BE01AA
:101970006E5F7F4FAE014D5F5F4FD3DA1A81101754
:1019800021F4EE24FF2440E0AECF5CDD40918602DE
:101990002981241708F070C08A8190E0CC965CE31E
:1019A000259F90011124820F931F20918502821B95
:1019B000910967E170E0641B71092CE330E0F901E3
:1019C0006E9F90016F9F300D7E9F300D1124820F0E
:1019D000931F9093990280939802209198023091DE
:1019E0009902C9016CE370E092D26093900274ECAA
:1019F000679F602D1124620F60938F0280919A027D
:101A000090919B020A962817390750F030939B0259
:101A100020939A02C80CD91C6C147D0408F44CC0A5
:101A20008091600290916102EF81F8858E179F0787
:101A3000E0F41C8240E06D817E816217730708F438
:101A400041E48091A4029091A502C29758F4EE243B
:101A5000FF2442E448CF1092440230924702209281
:101A600046020ECFEE24FF243ECFFC81FF5FFC83B5
:101A7000F63000F140E4DFCFFCE32F9FC0011124DA
:101A8000242F30E0A90164EC7FEF469F9001479F2F
:101A9000300D569F300D1124820F931F2A81820F23
:101AA000911D20918502821B910990939902809348
:101AB000980293CF40E0BFCF6301B2CF8091DD01A8
:101AC0006091DE014091DF01DFD9809145028823DA
:101AD00021F481E080934502089510924502089513
:101AE0006DEC71E0AB014E5F5F4FCB016F5F7F4FDD
:101AF00018DA8091CD0104D88091CE0101D880916F
:101B0000CF01FED780E2FCD784E6FAD70895CF92C2
:101B1000DF92EF92FF921F93DF93CF93CDB7DEB7A3
:101B20002A970FB6F894DEBF0FBECDBF84E289833B
:101B300081E090E0DFD28A8382E090E0DBD28B8389
:101B400083E090E0D7D28C8384E090E0D3D28D8381
:101B500013E0B6E0CB2ED12CCC0EDD1E7E01089416
:101B6000E11CF11CC701B60141E0E5DB882319F057
:101B70001150C1F781E02A960FB6F894DEBF0FBE70
:101B8000CDBFCF91DF911F91FF90EF90DF90CF906D
:101B900008951F93DF93CF93CDB7DEB72A970FB683
:101BA000F894DEBF0FBECDBF80E58983CE010196DC
:101BB000BE016A5F7F4F40E0BEDB8F818093590298
:101BC000988580E02985820F911D90935B02809318
:101BD0005A02B6DC65DDA6DD8ADC3EDD10E08091D0
:101BE0007202893059F01F5F133001F190DF7FDC02
:101BF00057DD98DD809172028930A9F780917102DA
:101C0000882389F780917C02823169F780917B0279
:101C1000882349F79091680280913E02981719F73E
:101C20009091670280913D029817E9F680E02A962C
:101C30000FB6F894DEBF0FBECDBFCF91DF911F91DD
:101C4000089580E090E056D280E090E062E44AD2CD
:101C500081E090E069E046D282E090E060E042D22C
:101C600083E090E062E13ED284E090E060E03AD22E
:101C70000895EF92FF921F9381E88093800011E016
:101C800016BB10936F00109285001092840081E8BB
:101C9000E82EF12CD7011C9218B817B88FEF85B930
:101CA00084B986E980937A0084B1806C84B9CDD5FB
:101CB00090D860E07BE480E090E09AD882E297E000
:101CC000E3D6E8E8F0E011821082D7011C9311827C
:101CD000108285B18F7385B91F91FF90EF900895A1
:101CE0000F931F93CF93DF9318E10FB6F8941093DF
:101CF0006000109260000FBEBCDF2E9A2F9AA1DF09
:101D000079D542D53CDA2E982F980FB6F8941093D7
:101D10006000109260000FBE2FE088E190E00FB6E7
:101D2000F894A895809360000FBE2093600078948B
:101D300081E08093580200E010E008C084EF91E059
:101D4000BCD11F5F123381F00330B0F48091DB010E
:101D50008823A1F31092DB01B1DE0F5F84EF91E0E5
:101D6000ACD11F5F123381F7033030F481E08093F0
:101D7000580210924B0205C01092580281E08093E5
:101D80004B02C2E0D0E001E021C01C9909C000D59F
:101D900082E060E04BE551E006D223DB8823A1F12D
:101DA00080914B02882321F480915802813041F1C7
:101DB00080E010D2E8D31092C0011092BF01809150
:101DC000BF019091C0018F5F914080F0A895D093A2
:101DD0008900C093880000938100D1D98091DB01F4
:101DE000882399F21092DB0169DECFCF0000A8951D
:101DF0008091BF019091C0018F5F914038F7F6CF7D
:101E0000E9D110925802D6CFC3D480E060E047E613
:101E100051E0C9D1BEDE882309F0C2CF1092B601CD
:101E200080915902813009F44FC0823009F442C0D8
:101E300015E410928900109288002E982F98A8D44B
:101E4000123409F444C0133458F5103409F44BC06B
:101E5000113409F49BDB74DB80E061E041EB51E07D
:101E6000A2D180915C0290915D024BD187E061E04C
:101E70004091900220918F02B0D18DE061E06DD44D
:101E80008091600261E04BD184EB91E07ED1B5D3CB
:101E90008823E9F32E981092DB0180E09BD180CF5C
:101EA0001434D9F01534B9F682E060E047E751E028
:101EB0007AD1D1CF8CED95E06EEB7DE140ED52E033
:101EC00029E25FDC182FB5CF84E893E0F5CF80E0FE
:101ED00060E042E951E067D1BECF81E060E041EAD5
:101EE00051E061D1B8CF2E9A81E060E044E851E042
:101EF0005AD14CDBB0CF991B79E004C0991F9617DB
:101F000008F0961B881F7A95C9F780950895AA1B3B
:101F1000BB1B51E107C0AA1FBB1FA617B70710F0D4
:101F2000A61BB70B881F991F5A95A9F78095909506
:101F3000BC01CD010895A1E21A2EAA1BBB1BFD0115
:101F40000DC0AA1FBB1FEE1FFF1FA217B307E40798
:101F5000F50720F0A21BB30BE40BF50B661F771FF0
:101F6000881F991F1A9469F76095709580959095D0
:101F70009B01AC01BD01CF01089597FB092E0526F9
:101F80000ED057FD04D0D7DF0AD0001C38F450958E
:101F90004095309521953F4F4F4F5F4F0895F6F78D
:101FA00090958095709561957F4F8F4F9F4F0895C5
:041FB000F894FFCFD3
:101FB4003A005354004D42003F3F002D3E0052432F
:101FC400006D562000DF006D4100200043686172FF
:101FD40067696E6720002E00534E002D5072696DA4
:101FE400656469612D002A5365742054696D652AFE
:101FF40000202020202020202020202020202020FD
:102004002020202020003A002D3E002D436F6E6ECC
:1020140065637465642D002D436F6D6D756E696322
:102024006174696E672D00556E6B6E6F776E20500C
:1020340061636B0046756C6C7920436861726765F7
:1020440064005061636B20556E706C7567676564DE
:10205400002A436F6D6D73204661696C7572652A41
:0620640000524300DF0002
:00000001FF
